{
  "_format": "hh-sol-artifact-1",
  "contractName": "OnchainRiddle",
  "sourceName": "contracts/Riddle.sol",
  "abi": [
    {
      "inputs": [],
      "stateMutability": "nonpayable",
      "type": "constructor"
    },
    {
      "anonymous": false,
      "inputs": [
        {
          "indexed": true,
          "internalType": "address",
          "name": "user",
          "type": "address"
        },
        {
          "indexed": false,
          "internalType": "bool",
          "name": "correct",
          "type": "bool"
        }
      ],
      "name": "AnswerAttempt",
      "type": "event"
    },
    {
      "anonymous": false,
      "inputs": [
        {
          "indexed": false,
          "internalType": "string",
          "name": "riddle",
          "type": "string"
        }
      ],
      "name": "RiddleSet",
      "type": "event"
    },
    {
      "anonymous": false,
      "inputs": [
        {
          "indexed": true,
          "internalType": "address",
          "name": "user",
          "type": "address"
        }
      ],
      "name": "Winner",
      "type": "event"
    },
    {
      "inputs": [],
      "name": "bot",
      "outputs": [
        {
          "internalType": "address",
          "name": "",
          "type": "address"
        }
      ],
      "stateMutability": "view",
      "type": "function"
    },
    {
      "inputs": [],
      "name": "isActive",
      "outputs": [
        {
          "internalType": "bool",
          "name": "",
          "type": "bool"
        }
      ],
      "stateMutability": "view",
      "type": "function"
    },
    {
      "inputs": [],
      "name": "riddle",
      "outputs": [
        {
          "internalType": "string",
          "name": "",
          "type": "string"
        }
      ],
      "stateMutability": "view",
      "type": "function"
    },
    {
      "inputs": [
        {
          "internalType": "string",
          "name": "_riddle",
          "type": "string"
        },
        {
          "internalType": "bytes32",
          "name": "_answerHash",
          "type": "bytes32"
        }
      ],
      "name": "setRiddle",
      "outputs": [],
      "stateMutability": "nonpayable",
      "type": "function"
    },
    {
      "inputs": [
        {
          "internalType": "string",
          "name": "_answer",
          "type": "string"
        }
      ],
      "name": "submitAnswer",
      "outputs": [],
      "stateMutability": "nonpayable",
      "type": "function"
    },
    {
      "inputs": [],
      "name": "winner",
      "outputs": [
        {
          "internalType": "address",
          "name": "",
          "type": "address"
        }
      ],
      "stateMutability": "view",
      "type": "function"
    }
  ],
  "bytecode": "0x6080604052348015600f57600080fd5b50336000806101000a81548173ffffffffffffffffffffffffffffffffffffffff021916908373ffffffffffffffffffffffffffffffffffffffff160217905550610e688061005f6000396000f3fe608060405234801561001057600080fd5b50600436106100625760003560e01c806310814c37146100675780631fdf55851461008557806322f3e2d4146100a157806356049a86146100bf578063bb3e3159146100dd578063dfbf53ae146100f9575b600080fd5b61006f610117565b60405161007c9190610620565b60405180910390f35b61009f600480360381019061009a91906107cb565b61013b565b005b6100a96102c8565b6040516100b69190610842565b60405180910390f35b6100c76102db565b6040516100d491906108dc565b60405180910390f35b6100f760048036038101906100f291906108fe565b610369565b005b6101016105b9565b60405161010e9190610620565b60405180910390f35b60008054906101000a900473ffffffffffffffffffffffffffffffffffffffff1681565b60008054906101000a900473ffffffffffffffffffffffffffffffffffffffff1673ffffffffffffffffffffffffffffffffffffffff163373ffffffffffffffffffffffffffffffffffffffff16146101c9576040517f08c379a00000000000000000000000000000000000000000000000000000000081526004016101c090610993565b60405180910390fd5b600360149054906101000a900460ff1615610219576040517f08c379a0000000000000000000000000000000000000000000000000000000008152600401610210906109ff565b60405180910390fd5b81600190816102289190610c35565b50806002819055506001600360146101000a81548160ff0219169083151502179055506000600360006101000a81548173ffffffffffffffffffffffffffffffffffffffff021916908373ffffffffffffffffffffffffffffffffffffffff1602179055507fc7c868b4cedbfd1ed1d9ab41c080a195ed463c01132c6c4b4b8d7983d1c5c29c826040516102bc91906108dc565b60405180910390a15050565b600360149054906101000a900460ff1681565b600180546102e890610a4e565b80601f016020809104026020016040519081016040528092919081815260200182805461031490610a4e565b80156103615780601f1061033657610100808354040283529160200191610361565b820191906000526020600020905b81548152906001019060200180831161034457829003601f168201915b505050505081565b600360149054906101000a900460ff166103b8576040517f08c379a00000000000000000000000000000000000000000000000000000000081526004016103af90610d53565b60405180910390fd5b600073ffffffffffffffffffffffffffffffffffffffff16600360009054906101000a900473ffffffffffffffffffffffffffffffffffffffff1673ffffffffffffffffffffffffffffffffffffffff1614610449576040517f08c379a000000000000000000000000000000000000000000000000000000000815260040161044090610dbf565b60405180910390fd5b6002548160405160200161045d9190610e1b565b60405160208183030381529060405280519060200120036105185733600360006101000a81548173ffffffffffffffffffffffffffffffffffffffff021916908373ffffffffffffffffffffffffffffffffffffffff1602179055506000600360146101000a81548160ff0219169083151502179055503373ffffffffffffffffffffffffffffffffffffffff167f745c90b656b4aafe296c8ca35aeacfe56cb96c90e1d320e5da643fff1051b6c060405160405180910390a25b3373ffffffffffffffffffffffffffffffffffffffff167fe1fc7c66a657ead4c3d3717cd8f74fb75e793a583bdc4105621e53abf02a9b053373ffffffffffffffffffffffffffffffffffffffff16600360009054906101000a900473ffffffffffffffffffffffffffffffffffffffff1673ffffffffffffffffffffffffffffffffffffffff16146040516105ae9190610842565b60405180910390a250565b600360009054906101000a900473ffffffffffffffffffffffffffffffffffffffff1681565b600073ffffffffffffffffffffffffffffffffffffffff82169050919050565b600061060a826105df565b9050919050565b61061a816105ff565b82525050565b60006020820190506106356000830184610611565b92915050565b6000604051905090565b600080fd5b600080fd5b600080fd5b600080fd5b6000601f19601f8301169050919050565b7f4e487b7100000000000000000000000000000000000000000000000000000000600052604160045260246000fd5b6106a282610659565b810181811067ffffffffffffffff821117156106c1576106c061066a565b5b80604052505050565b60006106d461063b565b90506106e08282610699565b919050565b600067ffffffffffffffff821115610700576106ff61066a565b5b61070982610659565b9050602081019050919050565b82818337600083830152505050565b6000610738610733846106e5565b6106ca565b90508281526020810184848401111561075457610753610654565b5b61075f848285610716565b509392505050565b600082601f83011261077c5761077b61064f565b5b813561078c848260208601610725565b91505092915050565b6000819050919050565b6107a881610795565b81146107b357600080fd5b50565b6000813590506107c58161079f565b92915050565b600080604083850312156107e2576107e1610645565b5b600083013567ffffffffffffffff811115610800576107ff61064a565b5b61080c85828601610767565b925050602061081d858286016107b6565b9150509250929050565b60008115159050919050565b61083c81610827565b82525050565b60006020820190506108576000830184610833565b92915050565b600081519050919050565b600082825260208201905092915050565b60005b8381101561089757808201518184015260208101905061087c565b60008484015250505050565b60006108ae8261085d565b6108b88185610868565b93506108c8818560208601610879565b6108d181610659565b840191505092915050565b600060208201905081810360008301526108f681846108a3565b905092915050565b60006020828403121561091457610913610645565b5b600082013567ffffffffffffffff8111156109325761093161064a565b5b61093e84828501610767565b91505092915050565b7f4f6e6c7920626f742063616e2063616c6c20746869732066756e6374696f6e00600082015250565b600061097d601f83610868565b915061098882610947565b602082019050919050565b600060208201905081810360008301526109ac81610970565b9050919050565b7f526964646c6520616c7265616479206163746976650000000000000000000000600082015250565b60006109e9601583610868565b91506109f4826109b3565b602082019050919050565b60006020820190508181036000830152610a18816109dc565b9050919050565b7f4e487b7100000000000000000000000000000000000000000000000000000000600052602260045260246000fd5b60006002820490506001821680610a6657607f821691505b602082108103610a7957610a78610a1f565b5b50919050565b60008190508160005260206000209050919050565b60006020601f8301049050919050565b600082821b905092915050565b600060088302610ae17fffffffffffffffffffffffffffffffffffffffffffffffffffffffffffffffff82610aa4565b610aeb8683610aa4565b95508019841693508086168417925050509392505050565b6000819050919050565b6000819050919050565b6000610b32610b2d610b2884610b03565b610b0d565b610b03565b9050919050565b6000819050919050565b610b4c83610b17565b610b60610b5882610b39565b848454610ab1565b825550505050565b600090565b610b75610b68565b610b80818484610b43565b505050565b5b81811015610ba457610b99600082610b6d565b600181019050610b86565b5050565b601f821115610be957610bba81610a7f565b610bc384610a94565b81016020851015610bd2578190505b610be6610bde85610a94565b830182610b85565b50505b505050565b600082821c905092915050565b6000610c0c60001984600802610bee565b1980831691505092915050565b6000610c258383610bfb565b9150826002028217905092915050565b610c3e8261085d565b67ffffffffffffffff811115610c5757610c5661066a565b5b610c618254610a4e565b610c6c828285610ba8565b600060209050601f831160018114610c9f5760008415610c8d578287015190505b610c978582610c19565b865550610cff565b601f198416610cad86610a7f565b60005b82811015610cd557848901518255600182019150602085019450602081019050610cb0565b86831015610cf25784890151610cee601f891682610bfb565b8355505b6001600288020188555050505b505050505050565b7f4e6f2061637469766520726964646c6500000000000000000000000000000000600082015250565b6000610d3d601083610868565b9150610d4882610d07565b602082019050919050565b60006020820190508181036000830152610d6c81610d30565b9050919050565b7f526964646c6520616c726561647920736f6c7665640000000000000000000000600082015250565b6000610da9601583610868565b9150610db482610d73565b602082019050919050565b60006020820190508181036000830152610dd881610d9c565b9050919050565b600081905092915050565b6000610df58261085d565b610dff8185610ddf565b9350610e0f818560208601610879565b80840191505092915050565b6000610e278284610dea565b91508190509291505056fea26469706673582212204e7d0bc8cfc9a1a993b55c329ce16a0cf1754ffb0bda4039c4b352cbdffc18ff64736f6c634300081c0033",
  "linkReferences": {},
  "deployedLinkReferences": {}
}